{
  "contractName": "WritePortal",
  "abi": [
    {
      "anonymous": false,
      "inputs": [
        {
          "indexed": true,
          "internalType": "address",
          "name": "from",
          "type": "address"
        },
        {
          "indexed": false,
          "internalType": "uint256",
          "name": "timestamp",
          "type": "uint256"
        },
        {
          "indexed": false,
          "internalType": "string",
          "name": "description",
          "type": "string"
        }
      ],
      "name": "NewWrite",
      "type": "event"
    },
    {
      "inputs": [
        {
          "internalType": "address",
          "name": "",
          "type": "address"
        }
      ],
      "name": "lastWroteAt",
      "outputs": [
        {
          "internalType": "uint256",
          "name": "",
          "type": "uint256"
        }
      ],
      "stateMutability": "view",
      "type": "function",
      "constant": true
    },
    {
      "inputs": [
        {
          "internalType": "string",
          "name": "_description",
          "type": "string"
        }
      ],
      "name": "write",
      "outputs": [],
      "stateMutability": "nonpayable",
      "type": "function"
    },
    {
      "inputs": [],
      "name": "getAllWrites",
      "outputs": [
        {
          "components": [
            {
              "internalType": "address",
              "name": "writer",
              "type": "address"
            },
            {
              "internalType": "string",
              "name": "description",
              "type": "string"
            },
            {
              "internalType": "uint256",
              "name": "timestamp",
              "type": "uint256"
            }
          ],
          "internalType": "struct WritePortal.Write[]",
          "name": "",
          "type": "tuple[]"
        }
      ],
      "stateMutability": "view",
      "type": "function",
      "constant": true
    },
    {
      "inputs": [],
      "name": "getLastWriter",
      "outputs": [
        {
          "internalType": "address",
          "name": "",
          "type": "address"
        }
      ],
      "stateMutability": "view",
      "type": "function",
      "constant": true
    },
    {
      "inputs": [],
      "name": "getTotalWrites",
      "outputs": [
        {
          "internalType": "uint256",
          "name": "",
          "type": "uint256"
        }
      ],
      "stateMutability": "view",
      "type": "function",
      "constant": true
    }
  ],
  "bytecode": "0x608060405234801561001057600080fd5b50610dab806100206000396000f3fe608060405234801561001057600080fd5b50600436106100575760003560e01c8063624782a71461005c5780637ac93e2d1461007a5780637fcb4a631461009857806381e5d145146100c8578063ebaac771146100e6575b600080fd5b610064610102565b60405161007191906104b9565b60405180910390f35b61008261010b565b60405161008f9190610515565b60405180910390f35b6100b260048036038101906100ad9190610570565b610135565b6040516100bf91906104b9565b60405180910390f35b6100d061014d565b6040516100dd9190610766565b60405180910390f35b61010060048036038101906100fb91906108bd565b61029e565b005b60008054905090565b6000600160009054906101000a900473ffffffffffffffffffffffffffffffffffffffff16905090565b60036020528060005260406000206000915090505481565b60606002805480602002602001604051908101604052809291908181526020016000905b8282101561029557838290600052602060002090600302016040518060600160405290816000820160009054906101000a900473ffffffffffffffffffffffffffffffffffffffff1673ffffffffffffffffffffffffffffffffffffffff1673ffffffffffffffffffffffffffffffffffffffff1681526020016001820180546101fa90610935565b80601f016020809104026020016040519081016040528092919081815260200182805461022690610935565b80156102735780601f1061024857610100808354040283529160200191610273565b820191906000526020600020905b81548152906001019060200180831161025657829003601f168201915b5050505050815260200160028201548152505081526020019060010190610171565b50505050905090565b42601e600360003373ffffffffffffffffffffffffffffffffffffffff1673ffffffffffffffffffffffffffffffffffffffff168152602001908152602001600020546102eb9190610995565b1061032b576040517f08c379a000000000000000000000000000000000000000000000000000000000815260040161032290610a6e565b60405180910390fd5b42600360003373ffffffffffffffffffffffffffffffffffffffff1673ffffffffffffffffffffffffffffffffffffffff1681526020019081526020016000208190555060016000808282546103819190610995565b92505081905550600260405180606001604052803373ffffffffffffffffffffffffffffffffffffffff16815260200183815260200142815250908060018154018082558091505060019003906000526020600020906003020160009091909190915060008201518160000160006101000a81548173ffffffffffffffffffffffffffffffffffffffff021916908373ffffffffffffffffffffffffffffffffffffffff16021790555060208201518160010190816104409190610c3a565b506040820151816002015550503373ffffffffffffffffffffffffffffffffffffffff167f1c57f4e211ee2010a7d09e39108ac299d3d487f1a23623d0f15f4904bb4d55314283604051610495929190610d45565b60405180910390a250565b6000819050919050565b6104b3816104a0565b82525050565b60006020820190506104ce60008301846104aa565b92915050565b600073ffffffffffffffffffffffffffffffffffffffff82169050919050565b60006104ff826104d4565b9050919050565b61050f816104f4565b82525050565b600060208201905061052a6000830184610506565b92915050565b6000604051905090565b600080fd5b600080fd5b61054d816104f4565b811461055857600080fd5b50565b60008135905061056a81610544565b92915050565b6000602082840312156105865761058561053a565b5b60006105948482850161055b565b91505092915050565b600081519050919050565b600082825260208201905092915050565b6000819050602082019050919050565b6105d2816104f4565b82525050565b600081519050919050565b600082825260208201905092915050565b60005b838110156106125780820151818401526020810190506105f7565b83811115610621576000848401525b50505050565b6000601f19601f8301169050919050565b6000610643826105d8565b61064d81856105e3565b935061065d8185602086016105f4565b61066681610627565b840191505092915050565b61067a816104a0565b82525050565b600060608301600083015161069860008601826105c9565b50602083015184820360208601526106b08282610638565b91505060408301516106c56040860182610671565b508091505092915050565b60006106dc8383610680565b905092915050565b6000602082019050919050565b60006106fc8261059d565b61070681856105a8565b935083602082028501610718856105b9565b8060005b85811015610754578484038952815161073585826106d0565b9450610740836106e4565b925060208a0199505060018101905061071c565b50829750879550505050505092915050565b6000602082019050818103600083015261078081846106f1565b905092915050565b600080fd5b600080fd5b7f4e487b7100000000000000000000000000000000000000000000000000000000600052604160045260246000fd5b6107ca82610627565b810181811067ffffffffffffffff821117156107e9576107e8610792565b5b80604052505050565b60006107fc610530565b905061080882826107c1565b919050565b600067ffffffffffffffff82111561082857610827610792565b5b61083182610627565b9050602081019050919050565b82818337600083830152505050565b600061086061085b8461080d565b6107f2565b90508281526020810184848401111561087c5761087b61078d565b5b61088784828561083e565b509392505050565b600082601f8301126108a4576108a3610788565b5b81356108b484826020860161084d565b91505092915050565b6000602082840312156108d3576108d261053a565b5b600082013567ffffffffffffffff8111156108f1576108f061053f565b5b6108fd8482850161088f565b91505092915050565b7f4e487b7100000000000000000000000000000000000000000000000000000000600052602260045260246000fd5b6000600282049050600182168061094d57607f821691505b6020821081036109605761095f610906565b5b50919050565b7f4e487b7100000000000000000000000000000000000000000000000000000000600052601160045260246000fd5b60006109a0826104a0565b91506109ab836104a0565b9250827fffffffffffffffffffffffffffffffffffffffffffffffffffffffffffffffff038211156109e0576109df610966565b5b828201905092915050565b600082825260208201905092915050565b7f4d7573742077616974203330207365636f6e6473206265666f7265207772697460008201527f696e6720616761696e2e00000000000000000000000000000000000000000000602082015250565b6000610a58602a836109eb565b9150610a63826109fc565b604082019050919050565b60006020820190508181036000830152610a8781610a4b565b9050919050565b60008190508160005260206000209050919050565b60006020601f8301049050919050565b600082821b905092915050565b600060088302610af07fffffffffffffffffffffffffffffffffffffffffffffffffffffffffffffffff82610ab3565b610afa8683610ab3565b95508019841693508086168417925050509392505050565b6000819050919050565b6000610b37610b32610b2d846104a0565b610b12565b6104a0565b9050919050565b6000819050919050565b610b5183610b1c565b610b65610b5d82610b3e565b848454610ac0565b825550505050565b600090565b610b7a610b6d565b610b85818484610b48565b505050565b5b81811015610ba957610b9e600082610b72565b600181019050610b8b565b5050565b601f821115610bee57610bbf81610a8e565b610bc884610aa3565b81016020851015610bd7578190505b610beb610be385610aa3565b830182610b8a565b50505b505050565b600082821c905092915050565b6000610c1160001984600802610bf3565b1980831691505092915050565b6000610c2a8383610c00565b9150826002028217905092915050565b610c43826105d8565b67ffffffffffffffff811115610c5c57610c5b610792565b5b610c668254610935565b610c71828285610bad565b600060209050601f831160018114610ca45760008415610c92578287015190505b610c9c8582610c1e565b865550610d04565b601f198416610cb286610a8e565b60005b82811015610cda57848901518255600182019150602085019450602081019050610cb5565b86831015610cf75784890151610cf3601f891682610c00565b8355505b6001600288020188555050505b505050505050565b6000610d17826105d8565b610d2181856109eb565b9350610d318185602086016105f4565b610d3a81610627565b840191505092915050565b6000604082019050610d5a60008301856104aa565b8181036020830152610d6c8184610d0c565b9050939250505056fea264697066735822122090e4449c2af378c4bb234991ad14033d2583ebbcf25034713b27aa6c71ed9ab664736f6c634300080f0033",
  "immutableReferences": {},
  "source": "// SPDX-License-Identifier: UNLICENSED\n\npragma solidity ^0.8.0;\n\ncontract WritePortal {\n    uint256 totalWrites;\n    address lastWriter;\n\n    event NewWrite(address indexed from, uint256 timestamp, string description);\n\n    struct Write {\n        address writer;\n        string description;\n        uint256 timestamp;\n    }\n\n    Write[] writes;\n\n    mapping(address => uint256) public lastWroteAt;\n\n    function write(string memory _description) public {\n        require(\n            lastWroteAt[msg.sender] + 30 seconds < block.timestamp,\n            \"Must wait 30 seconds before writing again.\"\n        );\n\n        lastWroteAt[msg.sender] = block.timestamp;\n\n        totalWrites += 1;\n        // console.log(\"%s wrote w/ description %s\", msg.sender, _description);\n\n        writes.push(Write(msg.sender, _description, block.timestamp));\n\n        // console.log(\"Random # generated: %d\", seed);\n\n        emit NewWrite(msg.sender, block.timestamp, _description);\n\n    }\n\n    function getAllWrites() public view returns (Write[] memory) {\n        return writes;\n    }\n\n    function getLastWriter() public view returns (address) {\n        return lastWriter;\n    }\n\n    function getTotalWrites() public view returns (uint256) {\n        // console.log(\"We have %d total writes!\", totalWrites);\n        return totalWrites;\n    }\n}",
  "sourcePath": "/home/grant/hackfs/contracts/WritePortal.sol",
  "compiler": {
    "name": "solc",
    "version": "0.8.15+commit.e14f2714.Emscripten.clang"
  },
  "schemaVersion": "3.4.8",
  "updatedAt": "2022-07-16T18:11:23.856Z",
  "networkType": "ethereum",
  "devdoc": {
    "kind": "dev",
    "methods": {},
    "version": 1
  },
  "userdoc": {
    "kind": "user",
    "methods": {},
    "version": 1
  }
}